:020000040800F2
:1000000088020020D5000008310D00081D0D0008F1
:1000100000000000000000000000000000000000E0
:10002000000000000000000000000000890D000832
:100030000000000000000000330D00088D0D0008D6
:100040000501000800000000350D0008050100084A
:100050000501000805010008050100080501000868
:100060000000000005010008050100080501000866
:100070000501000805010008000000009D0D0008B2
:100080000000000000000000000000000000000070
:100090000501000800000000000000000501000844
:1000A0000000000005010008000000000000000042
:1000B000450F0008210D00080000000000000000AE
:1000C0000348854600F032F800480047550F000805
:1000D000880200200C4880F308880C480168090E4B
:1000E0000B4A914205D10B480B4901600B480C4962
:1000F00001600C4880470C480047FEE7FEE7FEE73A
:10010000FEE7FEE7FEE70000880200200400000092
:100110001F000000341002400100000000000140F8
:1001200000000000990D0008C1000008064C0125E0
:10013000064E05E0E36807CC2B430C3C984710348F
:10014000B442F7D3FFF7C0FF281C0008481C000882
:10015000F0B51FB40646002082B005464024019148
:1001600000901BE0019922460F46304600F04FF800
:10017000049A059B801A994110D3104619462246CD
:1001800000F035F8361A8F410197224601200021F0
:10019000009F00F02CF838184D4100902046641E56
:1001A0000028DFDC019B00982946324607B0F0BDED
:1001B00070B50446002903D000202022012310E05E
:1001C000002801D00020C043C046C0460DE02546AF
:1001D000D5408D4205D30D469540641B1D46954084
:1001E00040191546521E002DF1DC214670BD10B598
:1001F000202A04DB0146203A9140002010BD9140A6
:1002000020239C1A0346E3401943904010BD10B5CB
:10021000202A04DB0846203AD040002110BD0B46BE
:10022000D340D0402024A21A91400843194610BD63
:1002300010B52521425C01462431022A11D1026801
:1002400013680E24A343136013680124A3431360AF
:10025000026C406C1C2303402046984050604C7058
:1002600001E00422C2630020087010BDB0B5252152
:10027000415C02291AD101462431026813680E2418
:10028000A343136013680125AB431360026C436CF6
:100290001C241C402B46A340536000240C704D705E
:1002A000816B002900D088472046B0BD0421C1637E
:1002B0000120B0BDF0B58DB0674A0B90904201D0DF
:1002C000062000E0022000900C68002C00D1C1E064
:1002D00001230020054604930C900A90019110E040
:1002E0002A433A60089D0C682046D8400C9A921C1C
:1002F0000C922D1D5B1C0A9A521C0A92002800D1F8
:10030000A8E05A1E0498099290400440EBD007934D
:10031000089503940B9F4B6803221C461440661EED
:10032000012E029315D803220C998A40BE68964389
:10033000019DED688D403543BD60DD06ED0F0999E7
:100340008D407E6886432E437E60D6430A984700E0
:100350000EE010460C998840C643032C0F4607D187
:1003600005960C9806901446019E3C4F089D24E08B
:100370000B99C8683040019B9A68BA400243CA6032
:10038000022C089D0697059615D11C2028400F24A5
:1003900084400999CA0892000B998A18156AA543E6
:1003A0001C6984402C43089D14621E465B6803242C
:1003B0001C402A4F02E01E46284F029B06988440AC
:1003C0000B9A106805990840204310609803800F2D
:1003D000079B314687D0224A1068012406942043A7
:1003E00010600C2028400F2282400324099EA6435F
:1003F0001C4D745994437519052212070B9E9642A1
:1004000006D0194A0B9E9642009A02D1069A00E045
:100410000022824022432A60BC684868C20202D59A
:10042000039D2C4301E0039DAC43BC60FC68820249
:1004300001D52C4300E0AC43FC607C68820301D50D
:100440002C4300E0AC437C603A68C00300D547E72A
:10045000AA4346E70DB0F0BD00080050000401407B
:10046000341002400800014000040050F0B587B08D
:100470000568EA692B682021059303910B405942D6
:10048000594101240694E7023C462F341440203C95
:10049000661EB4410C43AE685DD0029058300490A3
:1004A00039460F3101920A42059A07D0D2491140CC
:1004B000012034460440611800D08CE010231A401B
:1004C00054425441019A114619404F424F410298FB
:1004D000016E01290698014600D1394600290146DE
:1004E00000D121460029049F3CD0012399050E40EC
:1004F00074427441D102014600D52146002900D141
:10050000E1E080211546059A1140044648424841E1
:100510002906214600D501460029029800D164E150
:1005200040252A40544254410199490600D5069479
:100530000699002900D05CE1EFF3108183F3108865
:1005400002681368AB43136081F310880021C16611
:100550000399C1674DE1816E002900D149E18847C7
:1005600007B0F0BD2B62A868400600D5AFE07888E0
:1005700039887A88002A029E00D13AE1814200D16E
:1005800037E1EFF31081012080F310880922520136
:10059000346825689543256081F31088EFF3108156
:1005A00080F31088326894688443946081F31088E3
:1005B0000399B9620021B1663166EFF3108180F3CF
:1005C0001088306802689A43026081F31088022024
:1005D000706607B0F0BD0090010211404E424E41DE
:1005E000019AD1070698014600D03146002906D16C
:1005F000009E2E620498C16A3143C1620698664229
:1006000066419107014600D53146002907D10221F4
:1006100029620498C16A04260E43C662069866429F
:100620006641510701460DD5314600290CD1042100
:1006300029620498C16A02260E43C6620698110711
:100640000DD503E00029F2D0110708D51C4306D0D0
:10065000082129620498C46A0C43C4620698009970
:100660008906059A0A4054425441019A3A42029E30
:1006700000D02046002805D12F62049CE16A03982F
:100680000143E162049FF96A002900D1B1E00398B7
:1006900002405C425C41002A069800D020460028B7
:1006A00005D1B16E002902D0304688473568F96A15
:1006B00028220A40A9684020014089184FD1002013
:1006C000F86207B0F0BD1905296207B0F0BD029EBF
:1006D000706F006841688AB2002A00D189E03C88C6
:1006E000A24200D385E079800068800632D4EFF31F
:1006F0001081012080F31088414A20323468256837
:100700001540256081F31088EFF3108180F3108885
:10071000326894688443946081F31088EFF3108109
:1007200080F31088326894684025AC43946081F36C
:1007300010880399B96200213166EFF3108180F3CC
:100740001088306802689A43026081F31088706FE5
:10075000FFF76EFD02207066788807B0F0BDEFF3FA
:100760001081009D85F310880922520133681C68AE
:1007700094431C6081F31088EFF3108185F3108897
:1007800032689368AB43936081F31088316E01291E
:100790000BD1EFF31081009A82F31088326813684E
:1007A0001024A343136081F310880399B9620021D8
:1007B0003166B1663168896849061AD5EFF3108150
:1007C000009A82F31088326893688343936081F3C0
:1007D0001088706F00280CD008498163FFF746FD30
:1007E000002806D0706F816BB9E6C16E002900D079
:1007F000B5E607B0F0BDC046200100042D0E00088C
:10080000DFFEFFFFF0B58BB0002821D0044606467E
:100810007836C06F002846D10020307006902168DD
:100820008A4A914216D08A4A91423CD101218A04D7
:10083000884DAB6B1343AB63EA6A0A43EA62EA6A28
:100840000A4005920C21069105991D25062113E009
:1008500001250BE201214A047E4DAB6B1343AB63D0
:10086000EA6A0A43EA62EA6A0A40059203214902F7
:10087000069105991C2504210A91032109910890EC
:10088000022007900520000706A9FFF713FDE807DF
:10089000000FFF218140704802688A4302600120F6
:1008A000A8406E49086004962420E06727683868ED
:1008B0000125A8433860A0682169014360690843A5
:1008C000E16908433A68664B134003433B600320E9
:1008D000039000037A688243E06810437860A3695C
:1008E0005B4A974202D0206A184300E018460B2367
:1008F0001B02BE689E430643BE605448874204D034
:100900009742544E0AD10A2001E00220514EF36C66
:10091000C3409807000F53A31B5800E01023E803BF
:1009200097421ED0814234D1082B00D9F6E05B00FB
:100930007B449B885B009F440800F1007100F1003C
:100940005D00F100F100F100BE004A480068F16866
:100950004905490F484A515CC840002800D0AAE028
:10096000C7E0082B00D9D9E07B441B795B009F448A
:1009700004D53CD528D5D5D58B00E4480068F1686E
:100980004905490FE24A515CC840002800D07BE08D
:10099000AFE0082B00D9C1E07B441B795B009F448A
:1009A00004BD6DBD42BDBDBD9C00D8480068F16866
:1009B0004905490FD64A515CC840002800D08CE058
:1009C00097E0F1680807820FCC4852007A44928879
:1009D0005200974403000A0059004E010120000410
:1009E00071680904490F88404EE03068C0064AD556
:1009F000C44849E0F1680807820FC0485200C04669
:100A00007A4492885200974403000900560043013B
:100A1000280471680904490F88404CE03068C0061A
:100A200048D5B84847E0F1680807820FB34852003C
:100A30007A449288520097440300210050003A0102
:100A4000280471680904490F884046E000440040CA
:100A500000480040001002401CE400E000E100E01B
:100A6000F369FFEF00000000040000000200000036
:100A700008000000000000201F1C00083068C006AD
:100A80002AD5A04829E0A048626803215143884242
:100A900044D31103884241D8010E560800020023B6
:100AA00080195941FFF754FB9A4941189A4A9142DB
:100AB0001ED333E09448400061684A081018FFF7DD
:100AC00077FB0246103A290410398A4226D20140A7
:100AD0000007400F08430BE08B4861684A08101874
:100AE000FFF766FB014610392A04103A914215D2ED
:100AF000F8600026A666E666606A002859D0C1073D
:100B000010D1810716D441071CD4010722D4C10695
:100B100028D481062ED4410634D442E00020A066B9
:100B2000E066A3E069047A688A43A16A11437960A8
:100B30008107E8D529047A688A43E16A114379601C
:100B40004107E2D5A9047A688A43216B1143796091
:100B50000107DCD5E9037A688A43616B1143796048
:100B6000C106D6D52903BA688A43A16B1143B9607F
:100B70008106D0D56903BA688A43E16B1143B96035
:100B800041060ED529057A688A43236C1A437A6098
:100B90008B4206D1039949057A688A43616C1143F7
:100BA0007960000605D5E80479688143A06C0843A4
:100BB000786009200190C002796881437960B86843
:100BC0002A218843B8603868284338600498029620
:100BD000C660DB4806683868000718D569052046F6
:100BE000324600F02BF9002810D0EFF3108085F387
:100BF000108821680A6880239A430A6080F310886D
:100C00002020E067039D049902982EE02768386849
:100C1000400722D5A9052046324600F00FF90028EA
:100C20001BD0EFF3108085F31088019949012268E9
:100C300013688B43136080F31088EFF3108085F303
:100C4000108821688A68AA438A6080F3108820206F
:100C500004998860039D029807E02020E0670499CA
:100C600088600298206660660546087028460BB0CA
:100C7000F0BD8A02120F224B9A5C0902890F491CAF
:100C8000F368DB0323D43068C0061FD41E481EE07F
:100C90008A02120F1A4B9A5C0902890F491CF368E9
:100CA000DB031CD43068C00618D4174817E08A024A
:100CB000120F134B9A5C0902890F491CF368DB037E
:100CC00015D43068C00611D40F4810E00D485043C9
:100CD000FFF76EFA002800D0D6E60AE7094850432D
:100CE000FFF766FA002800D0E5E602E70548504322
:100CF000FFF75EFA002800D0EFE6FAE600127A006D
:100D0000061C000800093D000024F400000000203B
:100D10001F1C000800FDFFFF00FD0F00FEE70000A4
:100D200080B50248FFF7A2FB80BDC046F40000205A
:100D3000FEE7704710B5012041040F4A11600F49CA
:100D40000A689368DB0408D5D368DB0505D5D3684A
:100D50000B4C1C4303029C43D46093689B0408D54E
:100D6000D3689B0505D5D368064C1C4343029C43BE
:100D7000D4602122885410BD1404014008000020D2
:100D80007FFEFFFF7FFDFFFF704700006C4801689A
:100D9000491C01607047C046704700004020C043B6
:100DA000214A11680B699B0708D5CB689B0705D5BD
:100DB00003463E330B61002313768B690B695B0797
:100DC00008D5CB685B0705D503463C330B61002390
:100DD00013768B690B691B0708D5CB681B0705D5F4
:100DE000034638330B6100231376CB690B69DB06AE
:100DF00008D5CB68DB0605D5034630330B610023ED
:100E00001376CA690A69D20705D0CA68D20702D028
:100E100002463F320A610A69520603D5CA68520681
:100E200000D508617047C0462C000020806A01464A
:100E3000523100220A81522142527047F0B582B0ED
:100E40000568EB690B4000268B4202D1304602B0A8
:100E5000F0BD0190783000900120C702384C03E0CB
:100E6000EB690B408B42F1D023689B1A5B0E32D1A9
:100E70002B685B07F4D5EB691B072FD4EB693B426A
:100E8000EED02F62EFF31080012282F31088092147
:100E90004901019E33681C688C431C6080F31088F4
:100EA000EFF3108082F3108831688B6893438B6076
:100EB00080F31088336E03202021012B36D1EFF30D
:100EC000108382F31088326814681025AC431460D4
:100ED00083F310882AE0032002B0F0BD08212962C4
:100EE000EFF3108280F3108809235B01019E3468C0
:100EF00025689D43256082F31088EFF3108280F30C
:100F0000108833689C6884439C6082F31088326E3A
:100F1000012A0BD1EFF31082012080F3108833688F
:100F20001C681025AC431C6082F31088009B2022B3
:100F30009A6000223266B2661A70D96002B0F0BDC3
:100F40007C01002080B50248FFF790FA80BDC046C2
:100F50006C00002000B597B0F84A106840210143AA
:100F600011607D24E700F64800683946FFF720F954
:100F7000401E010EF34DF44B1BD1F4494860F44878
:100F800002682A4003239B07D218026000228A606D
:100F900007220A6001682940C918EB4B0160ED483F
:100FA00001210170586B084358630807996B01438E
:100FB00099630326F002E84A116881430125E8029B
:100FC00008181060DA680C200F900240D868042AD4
:100FD00010960E9204D00C2A26D12904084023D161
:100FE00018681F20000259688143280308185860B8
:100FF00018682843082188431860D9680807820FB9
:10100000D648920001A39A58CF4B97461D1000086E
:1010100077100008C51000088110000828045968DE
:101020000904490F88404DE0186828430821884387
:101030001860CB4801681A68520733D40268521A04
:10104000022A00D954E11A6852072BD40268521AB6
:10105000022A00D94CE11A68520723D40268521AB6
:10106000022A00D944E11A6852071BD40268521AB6
:10107000022AE0D93CE11868C0061BD5B94821E036
:101080000D948A02120F1C46B74B9A5C0902890F15
:10109000491CE368DB0310D4AB480068C0060BD4DE
:1010A000B2480AE01F20000259688143280308184B
:1010B000586038E0AD4805E0AA4850430D9CFFF762
:1010C00077F8A14BD9680906090FA94A515CC840B5
:1010D0009B4908603946FFF76BF8411E99488142E9
:1010E00000D905E19B480378984E716098492046E5
:1010F0003C462F460D68934A1540109A9207AD184A
:101100000D600025B56007253560012B00D0EFE0AC
:101110003D46274604460B688A48034013430B604C
:10112000894B8C480570186D284318658C4E3068C3
:10113000196D89071CD43168091A022900D9D7E032
:10114000196D890714D43168091A022900D9CFE032
:10115000196D89070CD43168091A022900D9C7E032
:10116000196D890704D43168091A0229E0D9BFE052
:101170000E980C2832D1FD200004D96801401120BE
:101180008004814200D0B3E00D946C4C2068C0070D
:1011900047D1206828432060306876492268D2070A
:1011A0003FD13268121A8A4200D95FE12268D20721
:1011B00037D13268121A8A4200D957E12268D20721
:1011C0002FD13268121A8A4200D94FE12268D20721
:1011D00027D13268121A8A42E0D947E128061968F5
:1011E00081431960680631681A68024252D0326839
:1011F000521A022A7CD81A6802424BD03268521A1C
:10120000022A75D81A68024244D03268521A022A59
:101210006ED81A6802423DD03268521A022AE3D9C7
:1012200066E0D868F0218843D8601868800100D44F
:101230001CE1D86810990843D8603068D9680F9AC3
:1012400011400C2958D03168091A4A4A914200D9F4
:101250000CE1D9680F9A11400C294DD03168091A58
:10126000444A914200D901E1D9680F9A11400C29F2
:1012700042D03168091A3F4A914200D9F6E0D96854
:101280000F9A11400C2937D03168091A394A914216
:10129000D4D9EBE0FD210904DA688A4311218904DD
:1012A0005118D9602749491C1A680A431A603168E5
:1012B0001A68024200D067E73268521A022A17D829
:1012C0001A68024200D05FE73268521A022A0FD829
:1012D0001A68024200D057E73268521A022A07D829
:1012E0001A68024200D04FE73268521A022ADFD948
:1012F000EFF3108072B6FEE7206807242002D96859
:101300008143D960E002D9688143D960D968080770
:10131000820F1248920002A39A580B4B9746C04680
:101320003113000879130008B31300088313000871
:10133000280459680904490F88403AE00020024017
:1013400000000020FFFFFF000010024010E000E05E
:1013500020ED00E0800100200070004000127A00C3
:101360007C01002000093D00061C00080024F40058
:101370000F1C0008881300001868C00612D5B64874
:1013800017E08A02120FB54B9A5C0902890F491CBB
:10139000B34BDB68DB0308D4B1480068C00603D454
:1013A000B04802E0AF4804E0AB485043FEF700FF0E
:1013B000AB4BD9680906090FAB4A515CC840AB4931
:1013C00008603946FEF7F4FE411EA94881424DD817
:1013D000A84803780C95A84D6960A8490868A44AF4
:1013E0001040109A9207801808600020A8602C60B6
:1013F0000C9D002B9A4B39D00A9008689C4C2040D9
:10140000104308609B4805702807996B01400E91B6
:1014100002D19A6B02439A630B902802984C22687F
:10142000D20527D42268024322603268236803422F
:1014300020D133689B1A642B00D908E1236803424A
:1014400018D133689B1A642B00D900E1236803424A
:1014500010D133689B1A642B00D9F8E0236803424B
:1014600008D133689B1A642BE0D9F0E0EFF31080C9
:1014700072B6FEE77A4B1A681A6DD20315D5784A10
:1014800005461046126D0C9BDB04046D1C4304657D
:10149000046D9C430465109B1B0414469C43046527
:1014A00028460C9D024200D0A7E0069068046C4BD1
:1014B0001A6D049002431A650E98002803D1996BA7
:1014C0000B9881439963D86C0F998843D86410981E
:1014D0008002D96C8143D9640A9D16951595D86A06
:1014E00004210843D862D86A0591084011901198E8
:1014F000D86A0C9C2043D862D86A20401190119879
:10150000D86A02210843D862D86A0791084011902E
:101510001198052000070B905A4981625A48C3214F
:101520000891816214951395A0031290574812A94F
:101530000E91FEF7BFFE149510981390E0030990EA
:10154000129052480E99FEF7B5FE1495109813901C
:1015500012940B9C20460E99FEF7ACFE159514953F
:101560000C9813904748129020460E9C2146FEF797
:10157000A1FE159514950C98139008981290424866
:101580002146FEF797FE14951395099812900B9833
:101590002146FEF78FFE1495139538200B9012907C
:1015A00039482146FEF786FE394805624562E12149
:1015B0004C02384932C0056045600F998160C560B2
:1015C0000C38FFF71FF9002803D0EFF3108072B634
:1015D000FEE73148314932C0056045600F998160AE
:1015E000C5600561456185610C38FFF70BF900287E
:1015F00058D0EFF3108072B6FEE732686B02184CD9
:10160000246D1C4200D050E73468A41A24498C424F
:101610001DD8134C246D1C4200D046E73468A41A30
:101620001F498C4213D80E4C246D1C4200D03CE75D
:101630003468A41A1A498C4209D8094C246D1C42FA
:1016400000D032E73468A41A15498C42D7D9EFF399
:10165000108072B6FEE7C04600093D00061C000877
:10166000001002400024F4000F1C000800000020BD
:10167000FFFFFF008001002010E000E020ED00E00F
:1016800000700040F21900000004005000080050F3
:10169000F4000020004800406C000020004400409E
:1016A00088130000CA4C7C22069B2733C949084690
:1016B0000C3821C422606360A560E5602561656126
:1016C0002125083C625D002A12D120220A9BA354E6
:1016D0000C9A9204C04C236D13432365FF2212041D
:1016E000BE4B1C6894431C60B94CBD4A059B1360FB
:1016F000079B63550A68D2060F957ED4CA228A6179
:1017000053228A610A68520629D40A688023134347
:101710000B6032680968490621D420683168891A4B
:10172000B94200D91BE2C168490617D43168891A49
:10173000B94200D913E2C16849060FD43168891A49
:10174000B94200D90BE2C168490607D43168891A49
:10175000B94200D903E2C1684906DFD59C4C8168D3
:10176000A04A0A408260616822690A43A169114364
:1017700082680A438260E1680161A1680904026924
:101780000A430261C16880229143C1608168890671
:1017900025D49549C16020683168C26892061DD47D
:1017A0003268521ABA4214D8C268920616D4326805
:1017B000521ABA420DD8C26892060FD43268521A31
:1017C000BA4206D8C268920608D43268521ABA429F
:1017D000E3D90599F64A0F9BD154C5E1F44CC16C8D
:1017E000109A9143C164E16962690A43C16C114373
:1017F000C164FF214162079B0F9D0C9A6255202115
:10180000605C012870D063550E9162542068816835
:10181000CA2103914162532102914162C168490684
:10182000134626D4C16880220A43C2603168C26868
:1018300052061ED43268521ABA4214D8C2685206EE
:1018400017D43268521ABA420DD8C268520610D460
:101850003268521ABA4206D8C268520609D43268AF
:10186000521ABA42E3D90599D14A0F9BD154C168A3
:1018700034E00A990160990482688A438260816831
:101880008160C168802208929143C16081688906A5
:101890002ED4CA49C160C64800683168C268920641
:1018A00026D43268521ABA4214D8C26892061FD49B
:1018B0003268521ABA420DD8C268920618D43268F9
:1018C000521ABA4206D8C268920611D43268521A25
:1018D000BA42E3D90599B64A0F9BD1540A99B44A42
:1018E0000E9BD154FF214162EFF3108072B6FEE7E8
:1018F0000C99AF4A0F9BD154FF240194446207987E
:10190000D0540E9811541468039860620298606273
:10191000E068400626D4E06808990843E060306833
:10192000E16849061ED43168091AB94214D8E16841
:10193000490617D43168091AB9420DD8E168490639
:1019400010D43168091AB94206D8E168490609D4A9
:101950003168091AB942E3D9059895490F9A885414
:10196000E0682BE096486060E06808998843E06092
:10197000A06880063AD49148E0603068E168890642
:1019800034D43168091AB94214D8E16889062DD4D3
:101990003168091AB9420DD8E168890626D4316840
:1019A000091AB94206D8E16889061FD43168091AB4
:1019B000B942E3D905987E490F9A88540A987C4920
:1019C0000E9A885401986062EFF3108072B6FEE7B9
:1019D000080000200C2800400010024000E400E055
:1019E00000E100E0BFFF8FFF5FDF01000C98704D4A
:1019F0000F9EA8550A980E9968540198606269482C
:101A000000680D990902FEF7D3FB47431297079828
:101A1000A855A06803986062029860626948014610
:101A20008031A2680A40A260E168C9B20143E16066
:101A30001298401E12901298002800D182E0E068AF
:101A4000C0071AD11298401E12901298002879D01F
:101A5000E068C00711D11298401E12901298002819
:101A600070D0E068C00708D11298401E12901298FA
:101A7000002867D0E068C007DAD05348E0610A9DCB
:101A80006564A06806990843A0600C9A1003A168D9
:101A90000143A1604D480168049B194301608168BE
:101AA000194381600198606241480F9942540E9930
:101AB00045544748474A484C48490B46083B38C0BC
:101AC00002604560089A826039220C38845C002CE0
:101AD0000FD10A9C0B9D4455344EB46B0C9D2C4386
:101AE000B463344CE568304E3540E560324C099DB6
:101AF0002560079C84543A4C2546703586682E40F4
:101B00001D68254035430469089EB4432C4345694C
:101B100025431D60C3684B6243680B620C9CCC601C
:101B20003E23C4543A23C45403463A335C709C7039
:101B3000DC7084540B9BC35C012B1BD1EFF3108032
:101B400072B6FEE70A981A490E9A885401986062A4
:101B500010980F9A8854EFF3108072B6FEE705993B
:101B6000134A0F9BD154C168FF214162EFF31080EB
:101B700072B6FEE7079D85540B681A4C1C400C603A
:101B80000C9E865485540A9B0B9C03550B1F1C68A6
:101B90007025AC430D681C60089B9D430D60865406
:101BA000FEE7C04600000020FFFFFF0000100240DB
:101BB0000800002000E400E000E100E05FDF010039
:101BC000012100007FFEFFFF00B000010004014082
:101BD0002C000020102700007F0C000008000040AF
:101BE0000FFCFFFF8800FFFF02E008C8121F08C1BA
:101BF000002AFAD170477047002001E001C1121F8E
:101C0000002AFBD17047030406080C10182030008E
:101C1000000000000000000102030406070809009C
:101C20000000000102030400481C0008000000201E
:101C300008000000E81B0008501C000808000020F5
:101C400080020000F81B00080000200000000000D7
:04000005080000C12E
:00000001FF
