:020000040800F2
:10000000E8070020D5000008C5110008B11100085C
:1000100000000000000000000000000000000000E0
:100020000000000000000000000000001D12000899
:100030000000000000000000C711000825120008A1
:100040000501000800000000C911000805010008B2
:100050000501000805010008050100080501000868
:100060000000000005010008050100080501000866
:100070000501000805010008000000003512000815
:100080000000000000000000000000000000000070
:100090000501000800000000000000000501000844
:1000A0000000000005010008000000000000000042
:1000B000DD130008B511000800000000000000007A
:1000C0000348854600F028FA00480047B11A0008A6
:1000D000E80700200C4880F308880C480168090EE6
:1000E0000B4A914205D10B480B4901600B480C4962
:1000F00001600C4880470C480047FEE7FEE7FEE73A
:10010000FEE7FEE7FEE70000E8070020040000002D
:100110001F000000341002400100000000000140F8
:100120000000000031120008C1000008F0B51FB443
:100130000646002082B005464024019100901BE055
:10014000019922460F46304600F027FA049A059B93
:10015000801A994110D310461946224600F00DFA34
:10016000361A8F410197224601200021009F00F09E
:1001700004FA38184D4100902046641E0028DFDC48
:10018000019B00982946324607B0F0BDF0B50746FE
:100190000846584087B0C00F049048000E465900EA
:1001A00040084908BC1A884105D2384631461E46E7
:1001B00017460B4602465800400810434CD0300DFD
:1001C000039040055900400D490D0590401A0290DA
:1001D000402872DA18030121000B09050843019039
:1001E00004980092002805D00199524200208841CD
:1001F00000920190029840210A1A0199009800F09B
:10020000BCF905460C466B4607CB00F0D7F9C01980
:100210007141039A0E0D0023D71756401A467A40B3
:10022000164344D0049A002A2DD0029A012A039A38
:1002300015DC1205C01A914101263605001C7141DA
:10024000D20F059ED2070093019202962A462346BA
:1002500000F0D4F907B0F0BD38463146FAE716058C
:10026000224A0F46B218C01AB74101210905001CE5
:100270004F4100187F41114618187941E20F104391
:100280006D19644113E0E2076D0815436408C20765
:100290001443039A01261205C01A91413605001C29
:1002A0007141CE07400830434908C01851412A46E1
:1002B000234600F096F9CDE7FFE7049801224000BD
:1002C000C117121A00238B4104983146C417381AFB
:1002D000A141EEE730B40124E407634030BC55E7A8
:1002E00030B40124E407614030BC4FE70000E0FF78
:1002F000F0B51FB488B00B990998002448400999BB
:10030000C00F490049080991C0070B9900904900A6
:1003100049080B9109990898A64608431CD00B99E7
:100320000A98084318D0099801244000420D48005B
:10033000410D099824050003000B204309900B98F8
:100340000003000B20430B9050181C49401800225A
:1003500001901446104605E0002001460DB0F0BDA6
:10036000032801DA034600E003239C46C11A0AAEC3
:100370000AE05F0008ADED5B4F00F75B7D430027AF
:10038000AA187C41491C5B1E6145F2DD410004ABAB
:100390005A522104120C0A43240C401C0828DFDBAB
:1003A000019802900099704601910090059B049A73
:1003B0000799069800F022F9D0E700000DFCFFFF36
:1003C000F0B50C465C4085B0E40FE40703944C00A4
:1003D00000266408590094464908024602962243C2
:1003E00021D062460A431ED06200570D4A000E0318
:1003F0002303550D012402462C492405781B1B0BB1
:10040000360B401823432643614600901C46501A81
:10041000B44103D30098401C009002E09218009869
:100420005B41002803DA0020014605B0F0BD002042
:10043000012109050746864611E064461D46141B46
:10044000B54106D36546521BB341744607430C437E
:10045000A646CD0740084908284392185B41054647
:100460000D43EAD11046184313D060461946504058
:100470007140084306D06046101AB34106D20122EB
:10048000002306E000220123DB0702E00122D24321
:100490005310009874460105381C6141029C039D6D
:1004A0000019694100F09DF8BFE70000FD0300005E
:1004B0004A0009030123090B1B0519430A4B10B518
:1004C000520D9A4202DA0020014610BD064B343329
:1004D0009A4203DC9A1A00F060F810BD034BD21860
:1004E00000F04BF810BD0000FF030000CDFBFFFF44
:1004F00010B5002904DB0124E40740428C41214669
:10050000002B04DB1C460123DB075242A341994226
:1005100000D1904210BD0000064C0125064E05E0BA
:10052000E36807CC2B430C3C98471034B442F7D314
:10053000FFF7CAFDF83200081833000870B504460A
:10054000002903D000202022012310E0002801D040
:100550000020C043C046C0460DE02546D5408D4230
:1005600005D30D469540641B1D4695404019154620
:10057000521E002DF1DC214670BD10B5202A04DB8F
:100580000146203A9140002010BD914020239C1A42
:100590000346E3401943904010BD10B5202A04DB08
:1005A0000846203AD040002110BD0B46D340D04031
:1005B0002024A21A91400843194610BD10B5202AE4
:1005C00006DBCB170846203A1041C1170B4306E063
:1005D0000B461341D0402024A21A914008431946EB
:1005E00010BD10B5002B08DA0024401C61419218A0
:1005F0005B411A4301D14008400010BDF0B51FB463
:1006000082B005460C0003D0084602F09DF902E0D6
:1006100002F09AF920300246009021462846FFF762
:10062000ACFF049B059A04460F4618431143084348
:1006300014D0184610431BD0009840210A1A1846BF
:100640000599FFF7AAFF05460E46009A05990498FA
:10065000FFF793FF084305D0012004E02046394608
:1006600007B0F0BD0020C11705430E432C433743AC
:1006700000990E986305401A7905E40A00220C439C
:10068000FD0A0A3002D500200146E9E701051019EC
:1006900069410C9C0D9D00196941FFF7A2FFDFE73E
:1006A00003460B439B0703D009E008C9121F08C08B
:1006B000042AFAD203E00B780370401C491C521E36
:1006C000F9D2704710B52521425C01462431022A37
:1006D00011D1026813680E24A34313601368012428
:1006E000A3431360026C406C1C23034020469840D7
:1006F00050604C7001E00422C2630020087010BDFD
:10070000B0B52521415C02291AD101462431026885
:1007100013680E24A343136013680125AB431360D1
:10072000026C436C1C241C402B46A34053600024E5
:100730000C704D70816B002900D088472046B0BDF9
:100740000421C1630120B0BDF0B58DB0674A0B90A4
:10075000904201D0062000E0022000900C68002C9E
:1007600000D1C1E001230020054604930C900A90BB
:10077000019110E02A433A60089D0C682046D84059
:100780000C9A921C0C922D1D5B1C0A9A521C0A9208
:10079000002800D1A8E05A1E049809929040044015
:1007A000EBD00793089503940B9F4B6803221C46DC
:1007B0001440661E012E029315D803220C998A401C
:1007C000BE689643019DED688D403543BD60DD06F2
:1007D000ED0F09998D407E6886432E437E60D64397
:1007E0000A9847000EE010460C998840C643032C37
:1007F0000F4607D105960C9806901446019E3C4F73
:10080000089D24E00B99C8683040019B9A68BA4063
:100810000243CA60022C089D0697059615D11C203C
:1008200028400F2484400999CA0892000B998A181D
:10083000156AA5431C6984402C43089D14621E461A
:100840005B6803241C402A4F02E01E46284F029B8F
:10085000069884400B9A1068059908402043106060
:100860009803800F079B314687D0224A10680124E5
:100870000694204310600C2028400F22824003245D
:10088000099EA6431C4D74599443751905221207FD
:100890000B9E964206D0194A0B9E9642009A02D1B0
:1008A000069A00E00022824022432A60BC68486821
:1008B000C20202D5039D2C4301E0039DAC43BC6002
:1008C000FC68820201D52C4300E0AC43FC607C68EC
:1008D000820301D52C4300E0AC437C603A68C0033E
:1008E00000D547E7AA4346E70DB0F0BD0008005029
:1008F0000004014034100240080001400004005090
:10090000F0B587B00568EA692B682021059303914B
:100910000B405942594101240694E7023C462F34CA
:100920001440203C661EB4410C43AE685DD002907A
:100930005830049039460F3101920A42059A07D087
:10094000D2491140012034460440611800D08CE0A7
:1009500010231A4054425441019A114619404F4203
:100960004F410298016E01290698014600D139468F
:100970000029014600D121460029049F3CD00123D3
:1009800099050E4074427441D102014600D52146BA
:10099000002900D1E1E080211546059A1140044666
:1009A000484248412906214600D5014600290298BF
:1009B00000D164E140252A4054425441019949063E
:1009C00000D506940699002900D05CE1EFF3108170
:1009D00083F3108802681368AB43136081F31088B7
:1009E0000021C1660399C1674DE1816E002900D1E4
:1009F00049E1884707B0F0BD2B62A868400600D5E2
:100A0000AFE0788839887A88002A029E00D13AE1DE
:100A1000814200D137E1EFF31081012080F310888B
:100A200009225201346825689543256081F31088B6
:100A3000EFF3108180F310883268946884439460E7
:100A400081F310880399B9620021B1663166EFF332
:100A5000108180F31088306802689A43026081F345
:100A600010880220706607B0F0BD009001021140AE
:100A70004E424E41019AD1070698014600D03146B8
:100A8000002906D1009E2E620498C16A3143C162DA
:100A90000698664266419107014600D53146002915
:100AA00007D1022129620498C16A04260E43C66256
:100AB000069866426641510701460DD53146002928
:100AC0000CD1042129620498C16A02260E43C66231
:100AD000069811070DD503E00029F2D0110708D5BB
:100AE0001C4306D0082129620498C46A0C43C462DE
:100AF000069800998906059A0A4054425441019A81
:100B00003A42029E00D02046002805D12F62049C64
:100B1000E16A03980143E162049FF96A002900D168
:100B2000B1E0039802405C425C41002A069800D084
:100B30002046002805D1B16E002902D030468847F2
:100B40003568F96A28220A40A968402001408918BE
:100B50004FD10020F86207B0F0BD1905296207B037
:100B6000F0BD029E706F006841688AB2002A00D111
:100B700089E03C88A24200D385E079800068800645
:100B800032D4EFF31081012080F31088414A2032E3
:100B9000346825681540256081F31088EFF31081D3
:100BA00080F31088326894688443946081F31088DD
:100BB000EFF3108180F31088326894684025AC43CD
:100BC000946081F310880399B96200213166EFF3D4
:100BD000108180F31088306802689A43026081F3C4
:100BE0001088706FFFF76EFD02207066788807B07E
:100BF000F0BDEFF31081009D85F3108809225201AA
:100C000033681C6894431C6081F31088EFF31081F3
:100C100085F3108832689368AB43936081F3108842
:100C2000316E01290BD1EFF31081009A82F3108805
:100C3000326813681024A343136081F3108803996A
:100C4000B96200213166B1663168896849061AD5F2
:100C5000EFF31081009A82F310883268936883431F
:100C6000936081F31088706F00280CD0084981636D
:100C7000FFF746FD002806D0706F816BB9E6C16EA4
:100C8000002900D0B5E607B0F0BDC0462001000441
:100C9000C5120008DFFEFFFFF0B58BB0002821D0A1
:100CA000044606467836C06F002846D100203070D2
:100CB000069021688A4A914216D08A4A91423CD1D4
:100CC00001218A04884DAB6B1343AB63EA6A0A4384
:100CD000EA62EA6A0A4005920C21069105991D25EF
:100CE000062113E001250BE201214A047E4DAB6B86
:100CF0001343AB63EA6A0A43EA62EA6A0A4005926E
:100D000003214902069105991C2504210A9103211A
:100D100009910890022007900520000706A9FFF717
:100D200013FDE807000FFF218140704802688A43E5
:100D300002600120A8406E49086004962420E06704
:100D4000276838680125A8433860A06821690143F5
:100D500060690843E16908433A68664B13400343FE
:100D60003B600320039000037A688243E0681043ED
:100D70007860A3695B4A974202D0206A184300E07A
:100D800018460B231B02BE689E430643BE605448B0
:100D9000874204D09742544E0AD10A2001E0022033
:100DA000514EF36CC3409807000F53A31B5800E04B
:100DB0001023E80397421ED0814234D1082B00D97A
:100DC000F6E05B007B449B885B009F440800F100D9
:100DD0007100F1005D00F100F100F100BE004A4831
:100DE0000068F1684905490F484A515CC84000282D
:100DF00000D0AAE0C7E0082B00D9D9E07B441B79DA
:100E00005B009F4404D53CD528D5D5D58B00E4485C
:100E10000068F1684905490FE24A515CC840002862
:100E200000D07BE0AFE0082B00D9C1E07B441B7908
:100E30005B009F4404BD6DBD42BDBDBD9C00D84854
:100E40000068F1684905490FD64A515CC84000283E
:100E500000D08CE097E0F1680807820FCC48520080
:100E60007A4492885200974403000A0059004E01C8
:100E70000120000471680904490F88404EE0306881
:100E8000C0064AD5C44849E0F1680807820FC04847
:100E90005200C0467A4492885200974403000900E9
:100EA00056004301280471680904490F88404CE04A
:100EB0003068C00648D5B84847E0F1680807820F97
:100EC000B34852007A4492885200974403002100AC
:100ED00050003A01280471680904490F884046E02F
:100EE0000044004000480040001002401CE400E0C4
:100EF00000E100E0F369FFEF0000000004000000E3
:100F0000020000000800000004000020A4320008D5
:100F10003068C0062AD5A04829E0A04862680321AD
:100F20005143884244D31103884241D8010E5608E8
:100F30000002002380195941FFF7F8F89A49411837
:100F40009A4A91421ED333E09448400061684A08AF
:100F50001018FFF7F3FA0246103A290410398A42B2
:100F600026D201400007400F08430BE08B48616820
:100F70004A081018FFF7E2FA014610392A04103A1D
:100F8000914215D2F8600026A666E666606A0028DF
:100F900059D0C10710D1810716D441071CD40107CD
:100FA00022D4C10628D481062ED4410634D442E08E
:100FB0000020A066E066A3E069047A688A43A16A1B
:100FC000114379608107E8D529047A688A43E16A88
:100FD000114379604107E2D5A9047A688A43216BFD
:100FE000114379600107DCD5E9037A688A43616BB4
:100FF00011437960C106D6D52903BA688A43A16B2B
:101000001143B9608106D0D56903BA688A43E16BA0
:101010001143B96041060ED529057A688A43236CCD
:101020001A437A608B4206D1039949057A688A434C
:10103000616C11437960000605D5E8047968814345
:10104000A06C0843786009200190C0027968814350
:101050007960B8682A218843B860386828433860C6
:1010600004980296C660DC4806683868000718D500
:1010700069052046324600F02DF9002810D0EFF324
:10108000108085F3108821680A6880239A430A60DB
:1010900080F310882020E067039D049902982EE0D9
:1010A00027683868400722D5A9052046324600F057
:1010B00011F900281BD0EFF3108085F310880199F7
:1010C0004901226813688B43136080F31088EFF3A3
:1010D000108085F3108821688A68AA438A6080F3AB
:1010E0001088202004998860039D029807E0202042
:1010F000E06704998860029820666066054608707B
:1011000028460BB0F0BD8A02120F224B9A5C0902EE
:10111000890F491CF368DB0323D43068C0061FD451
:101120001E481EE08A02120F1A4B9A5C0902890FB0
:10113000491CF368DB031CD43068C00618D4174878
:1011400017E08A02120F134B9A5C0902890F491C9F
:10115000F368DB0315D43068C00611D40F4810E0E3
:101160000D485043FFF7EAF9002800D0D6E60AE719
:1011700009485043FFF7E2F9002800D0E5E602E70E
:1011800005485043FFF7DAF9002800D0EFE6FAE609
:1011900000127A007032000800093D000024F400BB
:1011A00004000020A432000800FDFFFF00FD0F0036
:1011B000FEE7000080B50248FFF7A2FB80BDC046F5
:1011C0002C010020FEE7704710B5012041040F4AB2
:1011D00011600F490A689368DB0408D5D368DB0502
:1011E00005D5D3680B4C1C4303029C43D460936821
:1011F0009B0408D5D3689B0505D5D368064C1C43D2
:1012000043029C43D4602122885410BD1404014041
:10121000400000207FFEFFFF7FFDFFFF704770470B
:10122000704700006C480168491C01607047C04667
:10123000704700004020C043214A11680B699B079A
:1012400008D5CB689B0705D503463E330B610023C9
:1012500013768B690B695B0708D5CB685B0705D5EF
:1012600003463C330B61002313768B690B691B0724
:1012700008D5CB681B0705D5034638330B6100231F
:101280001376CB690B69DB0608D5CB68DB0605D581
:10129000034630330B6100231376CA690A69D2070B
:1012A00005D0CA68D20702D002463F320A610A69F5
:1012B000520603D5CA68520600D508617047C04679
:1012C00064000020806A0146523100220A815221C6
:1012D00042527047F0B582B00568EB690B400026BA
:1012E0008B4202D1304602B0F0BD019078300090C0
:1012F0000120C702384C03E0EB690B408B42F1D070
:1013000023689B1A5B0E32D12B685B07F4D5EB691F
:101310001B072FD4EB693B42EED02F62EFF3108016
:10132000012282F3108809214901019E33681C685B
:101330008C431C6080F31088EFF3108082F31088D8
:1013400031688B6893438B6080F31088336E032081
:101350002021012B36D1EFF3108382F310883268FD
:1013600014681025AC43146083F310882AE003202E
:1013700002B0F0BD08212962EFF3108280F31088DB
:1013800009235B01019E346825689D43256082F333
:101390001088EFF3108280F3108833689C688443D0
:1013A0009C6082F31088326E012A0BD1EFF3108219
:1013B000012080F3108833681C681025AC431C6042
:1013C00082F31088009B20229A6000223266B26667
:1013D0001A70D96002B0F0BDB401002080B5024897
:1013E000FFF78EFA80BDC046A4000020F0B58DB096
:1013F00003460024E043BA4A914201D00DB0F0BD4B
:10140000D14A11680729F9D8D04843544D1C1560BA
:101410000A2B02D0082D00D023E2CD4F38780028C7
:1014200000D11CE25F20CB49085C400600D416E2E4
:1014300009950493C848C9490AE0EFF31085EFF312
:10144000108372B6BB69BE61002D23D09A4224D0AE
:101450000668721C0260BA699642EED2EFF31087FA
:10146000EFF3108372B60B7801250D70002F00D1B9
:1014700062B6002BB64FE0D13B695B1C3B61EFF3DA
:101480001083EFF3108572B600250D70002BD4D1B8
:1014900062B6D2E762B69A42DAD1EFF305800790DE
:1014A0000B940A940AA8A949099AFFF7F9F80B9D29
:1014B0000A980890EFF31080EFF3108172B67A6803
:1014C000511C79600799002901D0A54901E07F21CD
:1014D0004902099B5B075B0B5918F30F1B07C918DF
:1014E000089BDB0F5B07C9180395EB0F9B07C91817
:1014F000032301931B06002800D162B6C81802908E
:101500003F2011460590014006910901954B5B185B
:1015100018460C300990EFF31081EFF3108572B686
:10152000DD686F010123D8070790002F0DD4079CB9
:1015300025400F24240592032240029802432A43A7
:101540000198840614430998046098060029C74D41
:1015500000D162B60442C64B00D03FE10090EFF3E9
:101560001080EFF3108172B66A68511C6960002820
:1015700000D162B6114605980140069109015F1835
:10158000EFF31081EFF3108372B6FB680C3700980D
:10159000034209970DD1079C23400F242405920391
:1015A0002240029C22431A43019B9C0614433C6048
:1015B00000E000240029AE4B00D162B6044200D006
:1015C0000CE1EFF31080EFF3108172B66A68511CE2
:1015D0006960002800D162B6114605980140069165
:1015E00009015F18EFF31081EFF3108372B6FB6807
:1015F0000C370098034209970DD1079C23400F2414
:10160000240592032240029C22431A43019B9C061C
:1016100014433C6000E000240029954B00D162B6E1
:10162000044200D0DAE0EFF31080EFF3108172B6DD
:101630006A68511C6960002800D162B6114605989D
:101640000140069109015F18EFF31081EFF3108359
:1016500072B6FB680C370098034209970DD1079CBE
:1016600023400F24240592032240029C22431A4364
:10167000019B9C0614433C6000E0002400297C4B45
:1016800000D162B6044200D0A8E0EFF31080EFF37F
:10169000108172B66A68511C6960002800D162B678
:1016A000114605980140069109015F18EFF310817A
:1016B000EFF3108372B6FB680C370098034209976A
:1016C00010D1079C23400F24240592032240029C42
:1016D00022431A43019B9C0614433C6003E0C0462E
:1016E0000000002000240029614B00D162B60442B2
:1016F00000D073E0EFF31080EFF3108172B66A68E8
:10170000511C6960002800D162B61146059801405D
:10171000069109015F18EFF31081EFF3108372B6A1
:10172000FB680C370098034209971DD1079C2340A2
:101730000F24240592032240029C22431A43019B5A
:101740009C0614433C6010E030020020340200206C
:10175000C006002040060020E40600202C020020E5
:1017600000FE08004002002000240029404B00D168
:1017700062B6044232D1EFF31080EFF3108172B6FB
:1017800069684A1C6A60002800D162B60598084062
:10179000059000011F18EFF31080EFF3108272B66E
:1017A000FA680C37009C224209970ED1079B1A4019
:1017B0000F231B0589031940029B0B431343019917
:1017C0008C061C432A4B3C6000E00024002800D11A
:1017D00062B6009804420599069125D0079F7A1EAB
:1017E00016402121890661400F403E430546069878
:1017F00000011E501C46039B13403B432018089CCD
:1018000014403C4344608360EFF31082EFF3108098
:1018100072B6099B1868284000D01960002A00D1D0
:1018200062B60028114D0DD1EFF31080EFF3108157
:1018300072B6E968491CE9600028049B0A4A0ED187
:1018400062B60CE0EFF31080EFF3108172B6A96876
:10185000491CA9600028049B034A00D162B60020FD
:10186000106018460DB0F0BD30020020C006002008
:101870004002002010B5002801D0002010BD104CFF
:101880001049204601F050F80FA1204601F04CF815
:101890006749204601F048F86649204601F044F8BF
:1018A0006549204601F040F864486A2101F03CF89F
:1018B0006349204601F038F81320C04310BDC046EC
:1018C000F4320008D13200084572726F723A20700B
:1018D0007454686973206973204E554C4C2E0A006D
:1018E000F0B581B0002854D005460068002850D0DB
:1018F00047680024002F6BD04460686800286AD0D5
:10190000F80721D0434E4449304601F00DF843A179
:10191000304601F009F84649304601F005F84549DE
:10192000304601F001F84449304600F0FDFF4348DD
:10193000302100F0F9FF4249304600F0F5FF6968B8
:101940008A68086889889047B80741D5314E32497E
:10195000304600F0E9FF3BA1304600F0E5FF344996
:10196000304600F0E1FF3349304600F0DDFF3249F8
:10197000304600F0D9FF3148352100F0D5FF30491D
:10198000304600F0D1FF6968CA68086889889047C6
:101990001EE0204C2049204600F0C6FF39A1204619
:1019A00000F0C2FF2249204600F0BEFF2149204638
:1019B00000F0BAFF2049204600F0B6FF1F484E2134
:1019C00000F0B2FF1E49204600F0AEFF1320C443D2
:1019D000204601B0F0BD0F4D0F49284600F0A4FF8E
:1019E0001DA1284600F0A0FF1149284600F09CFFE9
:1019F0001049284600F098FF0F49284600F094FF50
:101A00000E482A2100F090FF0D49284600F08CFF77
:101A1000DEE7C046F4320008D13200086765742062
:101A20004576656E745F53746F7261676500000080
:101A3000B3320008DE320008BF320008F13200087D
:101A4000AC320008676574204576656E745F476543
:101A500074446174610000004572726F723A2070C4
:101A60007454686973206F72207074546869732DA0
:101A70003E707444617461206973204E554C4C2E45
:101A80000A0000004572726F723A207074546869DF
:101A900073206F72207074546869732D3E707442A5
:101AA000617365206973204E554C4C2E0A0000006E
:101AB00000B5A3B0F84A10684021014311607D25AC
:101AC000EF00F64800683946FEF738FD401E010E6B
:101AD000F34CF44B1BD1F4494860F44802682240AF
:101AE00003239B07D218026000228A6007220A6043
:101AF00001682140C918EB4B0160ED4801210170DC
:101B0000586B084358630807996B01439963032690
:101B1000F002E84A116881430124E00208181060CD
:101B2000DA680C200F900240D868042A10960E92B2
:101B300004D00C2A26D12104084023D118681F2084
:101B40000002596881432003081858601868204330
:101B5000082188431860D9680807820FD648920088
:101B600001A39A58CF4B9746791B0008D31B000856
:101B7000211C0008DD1B0008200459680904490FD6
:101B800088404DE018682043082188431860CB48FE
:101B900001681A68520733D40268521A022A00D91F
:101BA00054E11A6852072BD40268521A022A00D94B
:101BB0004CE11A68520723D40268521A022A00D94B
:101BC00044E11A6852071BD40268521A022AE0D96B
:101BD0003CE11868C0061BD5B94821E00D958A0282
:101BE000120F1D46B74B9A5C0902890F491CEB681E
:101BF000DB0310D4AB480068C0060BD4B2480AE03F
:101C00001F2000025968814320030818586038E0FB
:101C1000AD4805E0AA4850430D9DFEF78FFCA14B4F
:101C2000D9680906090FA94A515CC8409B49086058
:101C30003946FEF783FC411E9948814200D905E1EF
:101C40009B480378984E7160984928463D46274640
:101C50000C68934A1440109A9207A4180C60002450
:101C6000B46007243460012B00D0EFE03C462F46DF
:101C700005460B688A48034013430B60894B8C4828
:101C80000470186D204318658C4E3068196D8907F3
:101C90001CD43168091A022900D9D7E0196D8907C7
:101CA00014D43168091A022900D9CFE0196D8907C7
:101CB0000CD43168091A022900D9C7E0196D8907C7
:101CC00004D43168091A0229E0D9BFE00E980C2823
:101CD00032D1FD200004D9680140112080048142E6
:101CE00000D0B3E00D956C4D2868C00747D1286837
:101CF00020432860306876492A68D2073FD132688D
:101D0000121A8A4200D962E12A68D20737D13268B2
:101D1000121A8A4200D95AE12A68D2072FD13268B2
:101D2000121A8A4200D952E12A68D20727D13268B2
:101D3000121A8A42E0D94AE12006196881431960E3
:101D4000600631681A68024252D03268521A022A7A
:101D50007CD81A6802424BD03268521A022A75D8CF
:101D60001A68024244D03268521A022A6ED81A689F
:101D700002423DD03268521A022AE3D966E0D8689E
:101D8000F0218843D8601868800100D41FE1D8682A
:101D900010990843D8603068D9680F9A11400C290F
:101DA00058D03168091A4A4A914200D90FE1D968DE
:101DB0000F9A11400C294DD03168091A444A9142BA
:101DC00000D904E1D9680F9A11400C2942D031683A
:101DD000091A3F4A914200D9F9E0D9680F9A114097
:101DE0000C2937D03168091A394A9142D4D9EEE02A
:101DF000FD210904DA688A43112189045118D96048
:101E00002749491C1A680A431A6031681A68024255
:101E100000D067E73268521A022A17D81A680242BD
:101E200000D05FE73268521A022A0FD81A680242BD
:101E300000D057E73268521A022A07D81A680242BD
:101E400000D04FE73268521A022ADFD9EFF3108030
:101E500072B6FEE7286807252802D9688143D96051
:101E6000E802D9688143D960D9680807820F12480F
:101E7000920002A39A580B4B9746C0468D1E00084D
:101E8000D51E00080F1F0008DF1E00082004596837
:101E90000904490F88403AE0002002400400002075
:101EA000FFFFFF000010024010E000E020ED00E026
:101EB000B80100200070004000127A00B401002038
:101EC00000093D00703200080024F400943200083C
:101ED000881300001868C00612D5B74817E08A02B8
:101EE000120FB64B9A5C0902890F491CB44BDB6890
:101EF000DB0308D4B2480068C00603D4B14802E04E
:101F0000B04804E0AC485043FEF718FBAC4BD9682E
:101F10000906090FAC4A515CC840AC490860394613
:101F2000FEF70CFB411EAA48814250D8A94803780D
:101F30000C94A94C6160A9490868A54A1040109A00
:101F40009207801808600020A06025600C9C002B80
:101F50009B4B3CD00A9008689D4D28401043086078
:101F60009C4804702007996B014002D19A6B024390
:101F70009A6324029A4A1268D2052CD4984B1A68A4
:101F800022431A603268964B1B68234223D1336880
:101F90009B1A642B00D90BE1914B1B6823421AD189
:101FA00033689B1A642B00D902E18D4B1B682342D6
:101FB00011D133689B1A642B00D9F9E0884B1B6858
:101FC000234208D133689B1A642BDCD9F0E0EFF38D
:101FD000108072B6FEE70894794B1A681A6DD20326
:101FE00012D5774D2A6D0C9BDB042C6D1C432C65A0
:101FF0002C6D9C432C65109B1B0414469C432C6544
:10200000089B1A4200D0A8E00C9D6C046C4B1A6D22
:10201000059422431A65002902D1996B8143996383
:10202000D86C0F998843D864109A9002D96C814378
:10203000D9646C4814906C4813901020129015A825
:1020400011900A9C22942194D86A04210843D862F2
:10205000D86A069108401D901D98D86A2843D86216
:10206000D86A28401D901D98D86A02210843D8627A
:10207000D86A079108401D901D98052000070E9012
:102080005A4981625A48C3210991816220941F9262
:1020900090031E9057481EA90B91FEF755FB209404
:1020A00010981F901E950E9D28460B99FEF74CFB2D
:1020B000219420940C981F904C481E9028460B9D0C
:1020C0002946FEF741FB219420940C981F90099813
:1020D0001E9047482946FEF737FB20941F940C9822
:1020E000C00304901E900E982946FEF72DFB209405
:1020F0001F94382009901E903D482946FEF724FB86
:102100003D4804624462E1214A023C4901600E926A
:1021100042608460C46004610F990D46416184612E
:10212000FEF7BAFD002803D0EFF3108072B6FEE789
:102130003348344901600E9941608460C460046191
:1021400045618461C46104624462FEF7A5FD002814
:102150005CD0EFF3108072B6FEE732680C9B5B0236
:10216000174C246D1C4200D04EE73468A41A264D4B
:10217000AC421DD8124C246D1C4200D044E7346898
:10218000A41A214DAC4213D80D4C246D1C4200D032
:102190003AE73468A41A1C4DAC4209D8084C246DA7
:1021A0001C4200D030E73468A41A174DAC42D7D98E
:1021B000EFF3108072B6FEE700093D0070320008B0
:1021C000001002400024F4009432000804000020B3
:1021D000FFFFFF00B801002010E000E020ED00E06C
:1021E000007000401F12000821120008F2190000C0
:1021F00000040050000800502C010020004800405E
:10220000A40000200044004088130000CA4D7C2236
:10221000089B2733C9480C3811C5083D29460831A9
:102220001CC16C61AC61EC6121216A5C002A11D196
:1022300020220A9BAB540C9A9204C14C236D134389
:102240002365FF221204BF4B1C6894431C60BE4AE6
:10225000069B1360079B0F916B54B8490A68D2061E
:102260007DD4CA228A6153228A610A68520629D41F
:102270000A68802313430B6032680968490621D439
:1022800028683168891AB94200D91CE2C168490638
:1022900017D43168891AB94200D914E2C1684906D5
:1022A0000FD43168891AB94200D90CE2C1684906D5
:1022B00007D43168891AB94200D904E2C1684906D5
:1022C000DFD59D4D8168A14A0A40826069682A690C
:1022D0000A43A969114382680A438260E96801617F
:1022E000A968090402690A430261C1688022914316
:1022F000C1608168890625D49549C1602868316824
:10230000C26892061DD43268521ABA4214D8C26802
:10231000920616D43268521ABA420DD8C268920692
:102320000FD43268521ABA4206D8C268920608D44C
:102330003268521ABA42E3D906997F4A0F9BD154A8
:10234000C6E17D4DC16C109A9143C164E9696A6927
:102350000A43C16C1143C164FF214162079B3C46A3
:102360000F990C9F6F542022A85C012870D06B54E9
:102370000E92AF5428688168CA21039141625321AB
:1023800002914162C168490626D4C16880220A438D
:10239000C2603168C26852061ED43268521AA24224
:1023A00014D8C268520617D43268521AA2420DD805
:1023B000C268520610D43268521AA24206D8C268C5
:1023C000520609D43268521AA242E3D906995A4AEF
:1023D0000F9BD154C16835E00A9901600C998904BA
:1023E00082688A43826081688160C16880220B9222
:1023F0009143C160816889062ED45549C1604E4819
:1024000000683168C268920626D43268521AA24225
:1024100014D8C26892061FD43268521AA2420DD84C
:10242000C268920618D43268521AA24206D8C2680C
:10243000920611D43268521AA242E3D906993E4A52
:102440000F9BD1540A993C4A0E9BD154FF21416203
:10245000EFF3108072B6FEE70C99374A0F9BD15408
:10246000FF25019545620798D0540E9811541568C0
:102470000398686202986862E868400626D4E868B3
:102480000B990843E8603068E96849061ED4316852
:10249000091AA14214D8E968490617D43168091A03
:1024A000A1420DD8E968490610D43168091AA14241
:1024B00006D8E968490609D43168091AA142E3D966
:1024C0000698F0490F9A8854E8682BE0F148686054
:1024D000E8680B998843E860A86880063AD4EC481D
:1024E000E8603068E968890634D43168091AA14285
:1024F00014D8E96889062DD43168091AA1420DD88B
:10250000E968890626D43168091AA14206D8E96823
:1025100089061FD43168091AA142E3D90698D9491E
:102520000F9A88540A98D7490E9A8854019868627D
:10253000EFF3108072B6FEE7400000200C28004048
:102540000010024000E400E000E100E0BFFF8FFF68
:102550005FDF01000C98CB4E0F9FF0550A980E9943
:10256000705401986862C44800680D990902FDF72B
:10257000E5FF44431E940798F055A86803986862E5
:1025800002986862C44801468031AA680A40AA607D
:10259000E968C9B20143E9601E98401E1E901E986A
:1025A000002800D182E0E868C0071AD11E98401EBA
:1025B0001E901E98002879D0E868C00711D11E9897
:1025C000401E1E901E98002870D0E868C00708D1F1
:1025D0001E98401E1E901E98002867D0E868C0070D
:1025E000DAD0AE48E8610A9E6E64A868089908438C
:1025F000A8600C9A1003A9680143A960A848016863
:10260000059B1943016081681943816001986862E4
:102610009C480F9942540E994654A248A24AA34C92
:10262000A3490B46083B58C0026046600B9A826083
:1026300039220C38845C002C0FD10A9C099D44552A
:102640008F4EB46B0C9D2C43B4638F4CE5688B4E5E
:102650003540E5608D4C049D2560079C8454954C65
:102660002546703586682E401D682540354304692F
:102670000B9EB4432C43456925431D60C3684B62E0
:1026800043680B620C9CCC603E23C4543A23C45470
:1026900003463A335C709C70DC708454099BC35CC5
:1026A000012B1BD1EFF3108072B6FEE70A98754933
:1026B0000E9A88540198686210980F9A8854EFF324
:1026C000108072B6FEE706996E4A0F9BD154C1681E
:1026D000FF214162EFF3108072B6FEE7079D85543B
:1026E0000B68754C1C400C600C9E865485540A9FE8
:1026F000099BC7540B1F1C687025AC430D681C60F8
:102700000B9B9D430D6086546C486DA100F00CF945
:102710006F4D2846394600F007F92846314600F04B
:1027200003F92846314600F0FFF82846394600F004
:10273000FBF8684C204600F0F7F8204600F0F4F86B
:10274000204600F0F1F8204600F0EEF8204600F0B8
:10275000EBF8204600F0E8F8204600F0E5F82046C7
:1027600000F0E2F8204600F0DFF8204600F0DCF848
:10277000204600F0D9F8204600F0D6F8092000F0F5
:102780005FFD2E24204600F05BFD204600F058FD42
:10279000204600F055FD204600F052FD4EA000F00E
:1027A00057FD4E4811A901604D4A4E4803C24E499B
:1027B000083A4A60FB434D4C2578002D08D14C4E19
:1027C0000A9F3760374608377760B360F760376134
:1027D0000A9E86606D1C25700D68456260C00838D1
:1027E00004461034C46003614461846100636C1C5E
:1027F0000BD03F4E083674682768AF4209D8666828
:102800003768AF423746F6D905E0394C2469676826
:1028100001E027463446876206462436BE60344DC2
:102820002F687F1C2F6045630262324A93606660A6
:102830000831C161114608311161D1605160C46233
:102840000A9810601D482CA100F06EF82E6908351A
:10285000AE4210D0194C33A720462CA100F064F8EA
:1028600031682EA000F060F82046394600F05CF890
:10287000B668AE42F0D1FEE704000020FFFFFF0083
:10288000001002404000002000E400E000E100E011
:102890005FDF0100012100007FFEFFFF00B00001AB
:1028A0000004014064000020102700007F0C00009D
:1028B000080000400FFCFFFF8800FFFFF432000813
:1028C000474D53492056455253494F4E203A000038
:1028D000CB320008AF3200080D000000E4010020F8
:1028E000E8010020F401002008000020B9010020C8
:1028F000BC010020D00100204C69737420616C6C15
:10290000206F626A6563743A0A000000202020206C
:102910006974656D2069643A0000000030782530E4
:10292000387800000A0000000FB410B503A9044B6A
:10293000044A029800F0E8F810BC08BC04B018473C
:10294000ED130008000000202021020C01D010210E
:102950001046020A01D010460839020901D010467B
:10296000091F820801D01046891E420801D0881E26
:102970007047081A704702E008C8121F08C1002AF1
:10298000FAD170477047002001E001C1121F002AF0
:10299000FBD17047F0B51FB486B00998089A030DB3
:1029A0000021024314D05148514A181850430514CD
:1029B0001198012810981AD0281A401C00264D4F53
:1029C0004D49009601910490002812DA444211E02A
:1029D0001198012449A3012801D11098C1430698F8
:1029E000119A84600360C26041600BB0F0BD404248
:1029F000E4E70446210500203F4A001C51410391B1
:102A0000029012E0E00707D032463B460199009859
:102A1000FDF76EFC0191009032463B461046194688
:102A2000FDF766FC06460F466410002CEAD10498B8
:102A3000039B0028029A0999089806DAFDF758FCCA
:102A4000019B009AFDF754FC05E0FDF7B9FC019BE2
:102A5000009AFDF7B5FC04460E460022284BFDF710
:102A600047FD03D80020C043014607E00022254B64
:102A700020463146FDF78AFBFDF71AFD102409E0D8
:102A8000002C0ADB0A220023FDF750FB079B3032A3
:102A90001A55641E02460A43F2D11122641C079B98
:102AA000121B1C19119B012B03D0012308430ED1CB
:102AB0000AE0084304D0112010900020119077E71D
:102AC0001098151A6D1E0BE01098824202DD00234B
:102AD0006D1C03E0824201DA00236D1E002BEED054
:102AE000069811998260C16030C07EE701FCFFFF4B
:102AF000104D0000000014400000F03F30000000C6
:102B00000000F0430000E03FFFB597B00646002507
:102B100018E2252877D100242746FD49049400E0D7
:102B20000443761C32780120203A90400842F7D1C5
:102B300030782A280ED0022230780146303909290F
:102B400016D804990A235943303940181443761C87
:102B50000490F1E7189802C804911890002904DA4B
:102B60000120400304434842049002200443761CA1
:102B700030782E2814D1042004437078761C2A283B
:102B800009D11898761C80C8189009E00A214F4393
:102B9000303FC719761C3078014630390929F5D9FC
:102BA00030786C2810D006DC4C281AD068280ED05B
:102BB0006A2817D104E0742813D07A2812D110E0C3
:102BC0000120400504430CE00121090501E0032137
:102BD00009050C437178814203D1012000052418B6
:102BE000761C761C3078119066280BD013DC5828A0
:102BF0007DD009DC00287BD04528F6D04628F4D0CB
:102C000047281AD1A5E118E0632835D0642870D090
:102C1000652812D19DE170286CD008DC6728F1D0BE
:102C200069287BD06E280DD06F2806D1BAE07328B2
:102C30002ED0752871D0782859D01A9A19999047B2
:102C40006D1C7EE16002400F022809D003280DD0E0
:102C50000428189801680DD00D60001D189070E1CF
:102C60001898EA1701680D604A60F6E7189801683D
:102C70000D80F2E70D70F0E718986A46017811723E
:102C8000001D18900020507202A80090012005E05D
:102C9000189802C8189000200091C04361070DD514
:102CA000002101E00199491C0191B94212DA8142E7
:102CB000F8DB009A515C0029F4D10BE0002101E01F
:102CC0000199491C01918142FADB019A0099895CC2
:102CD0000029F5D1019904981A9B471A21463846D4
:102CE000199A00F097FA0199401945180BE04FE046
:102CF0002CE113E04EE0009800990078491C009107
:102D00001A9A199990470198401E0190401CF2D1DF
:102D1000214638461A9B199A10E137E00A20002113
:102D2000009001916002410F022907D0189A01CA50
:102D30001892C2179446032908D00AE01898C01DBB
:102D4000C108C90005C91891944607E000B2C2172E
:102D50009446042902D140B2C1178C460022614634
:102D6000944506DA0A460021404291418C462D21C5
:102D700002E0210504D52B216A461173012103E0ED
:102D8000E10701D02021F7E7029155E00A200AE08F
:102D9000102008E01020009000210420044301913D
:102DA000082703E008200021019100906002410FF4
:102DB000022907D0189A01CA1892002294460329C2
:102DC00008D008E01898C01DC108C90005C91891AD
:102DD000944603E080B2042900D1C0B200210291E0
:102DE000210729D51199702906D0009A1021019B3D
:102DF0004A401A4305D00EE040216A461173012172
:102E000008E06146014306D030216A4611731199EA
:102E1000517302210291009A0821019B4A401A43F2
:102E20000AD16146014301D1610705D530216A46C7
:102E3000117301217F1E02911199582904D035A1E7
:102E40000E910DA90D910DE037A1F9E76146019BA7
:102E5000009AFDF76BF90E9B8C469B5C0D9A521EF7
:102E60000D92137061460143F0D10D9805A9081A1F
:102E700020300190600703D501200004844300E066
:102E800001270198874201DD381A00E000200199EE
:102E900000904118029809180498401A0490E00321
:102EA00006D421461A9B199A049800F0B3F94519E3
:102EB000002706E003A81A9AC05D199990476D1C77
:102EC0007F1C02988742F5DBE0030CD521461A9B54
:102ED000199A049800F09EF9451904E01A9A3020D6
:102EE000199990476D1C0099481E00900029F5DC47
:102EF00008E00D980D990078491C0D911A9A1999BE
:102F000090476D1C0199481E01900029F1DC63E196
:102F100009280100303132333435363738396162AF
:102F20006364656600000000303132333435363773
:102F300038394142434445460000000000F05AF948
:102F40004519761C3078002800D0E2E528461BB0F1
:102F5000F0BD600700D406271898C01DC108C9003D
:102F600048680A680831C30FDB071891190001D0BF
:102F70009CA108E0210501D59BA104E0E10701D057
:102F80009AA100E09AA1430011985B08109165286E
:102F90000CD006DC452809D046281DD0472841D151
:102FA00041E0662818D067283CD13CE00021112F71
:102FB00001DB112000E0781C0191009008A911A804
:102FC000FFF7E8FC139905910021119A15927F1CD7
:102FD00012980197009150E00120C0070390012052
:102FE000019008A9009711A8FFF7D4FC139A14992F
:102FF00005920022119B009212981593059A019256
:10300000002901D0104602E0791C40180190381ABE
:1030100001D5019804E04042401E0090781C0190C8
:10302000C01B029043E0012F00DA01270021112F7D
:1030300001DD112000E038460191009008A911A897
:10304000FFF7A8FC13990591119A00211298159287
:103050000091019721070CD40599B94201DB019930
:1030600000E00191012904DD159A491E515C3029C7
:1030700006D0B84201DA011D05DA0121029115E0FE
:103080000199491EEDE7002805DC009941180091DF
:103090000199091A03E0019A411C914200DD019156
:1030A0000099401A401C02900120C007039020079D
:1030B00006D402990198814202DB0020C0430290AD
:1030C00000206946C87707AF012103980337C90775
:1030D000884224D0022011902B20129003980028BF
:1030E0000CDA404203902D20129007E00A21039849
:1030F000FDF724FA30317F1E039039701199481E74
:1031000011900029F2DC03980028EFD1791E129863
:1031100008703078202108404530BF1E387006A85E
:10312000C01BC01D039010980078002800D001201B
:10313000019941180298C0170918039809180498B2
:10314000401A401E0490E00306D421461A9B199AA7
:10315000049800F05FF8451910980078002803D013
:103160001A9A199990476D1CE00324D521461A9BA1
:10317000199A049800F04EF845191CE000980028B0
:1031800007DB00990598884203DD1598405C199982
:1031900001E0199930201A9A904700986D1C401C44
:1031A00000900298401E0290002804D11A9A2E2006
:1031B000199990476D1C0199481E01900029DDDC8A
:1031C00005E038781A9A7F1C199990476D1C03996D
:1031D000481E03900029F4DC21461A9B199A049892
:1031E000ACE600002D0000002B00000020000000D5
:1031F00000000000F8B5044600251E461746880466
:1032000004D405E039462020B0476D1C641EF9D572
:103210002846F8BDFFB50446002581B01E46C80308
:1032200001D5302700E02027880404D505E0384682
:103230000399B0476D1C641EF9D5284605B0F0BD52
:1032400010B50249FEF7D2F810BD000000000020C2
:1032500010B5044601E0FEF7C9F82078641C034964
:103260000028F8D10A20FEF7C1F810BD00000020A8
:10327000030406080C1018203000000001000101B2
:10328000400000004002002040060020C006002050
:103290000000000000000000000000000102030424
:1032A0000607080900000000010203042E0A00209E
:1032B0002020003B20696E2066696C653A20002C56
:1032C00020696E206C696E653A20002530325820E6
:1032D00000676C6F675F5072696E74663A002E2EDD
:1032E0002F676D73692F6773746F726167652E63E3
:1032F0000025640025730000403300080000002012
:1033000040000000762900088033000840000020BB
:10331000A807000086290008000000000000000047
:10332000000000000000000000000000000000009D
:10333000000000000000000000000000000000008D
:103340000000000000002000010900000000000053
:1033500075180008E11800080000000000000000D7
:10336000000000000000000000000000000000005D
:10337000000000000000000000000000000000004D
:04000005080000C12E
:00000001FF
